:020000040800F2
:100000000000022009820008490300084D0300088F
:1000100051030008550300085903000800000000C0
:100020000000000000000000000000005D03000868
:100030006103000800000000650300086903000870
:100040005982000859820008598200085982000824
:100050005982000859820008598200085982000814
:100060005982000859820008598200085982000804
:1000700059820008598200085982000859820008F4
:1000800059820008598200085982000859820008E4
:1000900059820008598200085982000859820008D4
:1000A00059820008598200085982000859820008C4
:1000B00059820008598200085982000859820008B4
:1000C00059820008598200085982000859820008A4
:1000D0005982000859820008598200085982000894
:1000E0005982000859820008598200085982000884
:1000F0005982000859820008598200085982000874
:100100005982000859820008598200085982000863
:100110005982000859820008598200085982000853
:100120005982000859820008598200085982000843
:100130005982000859820008598200085982000833
:100140005982000859820008598200085982000823
:100150005982000859820008598200085982000813
:100160005982000859820008598200085982000803
:1001700059820008598200085982000859820008F3
:080180005982000859820008B1
:1001880040F21003C2F2000330B5186844F6D352A7
:10019800C1F26202A2FB00304EF210034FF46D422E
:1001A800CEF20003CEF20002800900240138F021CB
:1001B800072583B0586082F8231008209C6001212D
:1001C8001D6000F0A5FB4FF4406001220323C4F238
:1001D80002004FF4704569468DF806408DF80740D7
:1001E80000958DF804208DF8053000F03DFD03B032
:1001F80030BD00BF70B54FF4805484B0C4F2000421
:1002080006460121102000F0ADFB42F2D005002384
:10021800204601A9ADF80C30ADF806300296ADF8CD
:10022800045000F0BFFE20462946012200F010FFCE
:100238002046012100F064FF04B070BD01464FF470
:100248008050C4F2000008B500F010FF4FF4805051
:10025800C4F20000002100F007FF4FF48050012194
:10026800C4F2000001F0AAFB01280146F5D14FF4C1
:100278008050C4F20000BDE8084001F0A5BB00BFF3
:1002880008B54FF440604FF48051C4F2020000F00A
:100298007BFD4FF47A70FFF7D1FF4FF440604FF4C5
:1002A8000051C4F2020000F06FFD4FF47A70FFF7BE
:1002B800C5FF4FF440604FF48041C4F2020000F0E3
:1002C80063FD4FF47A70FFF7B9FF4FF440604FF4C5
:1002D8000041C4F2020000F057FD4FF47A70FFF7B6
:1002E800ADFF4FF44060C4F202004FF4704100F0DB
:1002F8004DFD4FF47A70FFF7A1FFC2E740F68C136B
:10030800C2F200031A6812B11A68013A1A6040F67C
:100318009013C2F200031A6801321A60704700BFD6
:1003280082B040F68C120190019BC2F20002136069
:100338001368002BFCD102B0704700BF704700BFA4
:10034800704700BFFEE700BFFEE700BFFEE700BF43
:10035800FEE700BF704700BF704700BF704700BF8F
:10036800FFF7CCBF4FF46D42CEF200024FF460535A
:10037800D2F88810C4F2020341F47001C2F8881060
:100388001968002241F0010119609A60186843F267
:10039800100120F08470C2F2004120F4803018600F
:1003A8005960196882B021F480211960DA600092DE
:1003B80001921A6842F480321A601A4603E0009BE0
:1003C800B3F5A06F09D0136803F400330193009BC1
:1003D80001330093019B002BF1D04FF46053C4F21A
:1003E80002031B6813F4003318BF01230193019B18
:1003F800012B08D04FF46D43CEF200034FF000629A
:100408009A6002B070474FF46053C4F202034FF48D
:10041800E042196CC4F2000241F08051196411687D
:1004280041F4804111609A689A609A6842F40042E7
:100438009A60996845F2084241F4A051C0F24072AE
:1004480099605A601A6842F080721A6019460A6800
:100458004FF460539201C4F20203F8D54FF470527E
:10046800C4F2020240F2056111609A6822F00302A8
:100478009A609A6842F002029A609A6802F00C0246
:10048800082AFAD1B6E700BF4FF46053C4F202035A
:100498009A6802F00C02042A36D0082A12D04FF4C7
:1004A8001051C0F2F4014FF46052C4F2020240F25B
:1004B80000039268C2F20003C2F303129A5CD140AF
:1004C8001961704758685A6810F4800F586815BF4A
:1004D8004FF490534FF41053C0F27A03C0F2F40370
:1004E80002F03F02B3FBF2F14FF46053C4F202038F
:1004F800C0F388105B68C3F30143013301FB00F1CB
:100508005B00B1FBF3F1CEE74FF49051C0F27A01F2
:10051800C9E700BF002070470020704701207047DE
:10052800002070474FF0FF30704700BF0020704731
:1005380040F6E403C2F20003186838B101446A4681
:10054800914294BF19604FF0FF30704740F6981001
:10055800C2F200001860F1E770B5161E14DD0C46F3
:100568008D194FF48840C4F2000014F8011B01F003
:100578006FFC4FF48840C4F20000402101F02CFDCC
:100588000028F6D0AC42ECD1304670BD10B52DED48
:10059800028BB5EEC00AF1EE10FA86B0B0EE408AD2
:1005A80044BFB1EE408A2D224FF00003B0EE480A56
:1005B8000446ADF8143044BF8DF815308DF814207A
:1005C80001F042FD07EE904AF0EE408AF8EEE70AA5
:1005D800B2EE040A01F088FD78EE688AF6EE007A39
:1005E800E8EE807ABCEEC88AFCEEE77A40F6E800CE
:1005F80048F2004100940194CDED027AC0F6000162
:1006080005AA18EE103AC2F2000003F09DF840F671
:10061800E800C2F2000006B0BDEC028B10BD00BFBE
:100628007C84000800000020E4080020E408002082
:10063800980900204FF46053C4F20203002219689D
:1006480041F0010119609A60186843F2100120F026
:100658008470C2F2004120F4803018605960196833
:1006680021F480211960DA60704700BF43F6020365
:10067800C4F2020300221A701870704782B0002377
:100688004FF460520193C4F2020213689B030FD423
:10069800019B01330193019BB3F5A06FF5D14FF492
:1006A8006053C4F202031868C0F3404002B07047B8
:1006B800019B01330193019BF1E700BF4FF46053A5
:1006C800C4F202031A6822F0F80242EAC000186075
:1006D800704700BF0023C4F247231860704700BF6B
:1006E80043F67003C4F20203002201281A701A703C
:1006F80005D0042802D105221A7070477047187077
:10070800704700BF4FF46863C4F24723186070470E
:1007180010B4019C40EA04605B0801434FF4605444
:10072800C4F20204013B41EA821242EA03436360D5
:100738005DF8044B704700BF6023C4F2472318607C
:10074800704700BF4FF460530907C4F2020341EA3F
:100758008010C3F8840070476823C4F247231860E8
:10076800704700BF4C23C4F247231860704700BF8E
:100778004FF46053C4F202039A6822F0EC6211430A
:1007880008439860704700BF4FF46053C4F20203F7
:100798009A6822F07842114308439860704700BF76
:1007A8004FF46053C4F202039A6822F00302104324
:1007B800986070474FF46053C4F20203986800F0E1
:1007C8000C0070474FF46053C4F202039A6822F099
:1007D800F0021043986070474FF46053C4F202036C
:1007E8009A6822F4E0521043986070474FF46053BF
:1007F800C4F202039A6822F4604242EAC000986098
:10080800704700BF4FF46053C4F2020310B49A68F3
:1008180002F00C02042A24D0082A28D04FF41051E0
:10082800C0F2F40101604FF46052C4F2020240F2D7
:1008380014039468C2F20003C4F303141C5DE1407E
:1008480041609468C4F382241C5D21FA04F4846036
:1008580092685DF8044BC2F342329B5CD940C16098
:1008680070474FF49051C0F27A010160DBE75C6891
:100878005A6814F4800F5C6815BF4FF490534FF416
:100888001053C0F27A03C0F2F40302F03F02B3FB44
:10089800F2F14FF46053C4F20203C4F388145B68A6
:1008A800C3F30143013301FB04F15B00B1FBF3F136
:1008B8000160B8E700F44073B3F5407F0CD14FF402
:1008C8006053C4F2020320F070419A6821F4407129
:1008D80022F4F8120A439A604FF46053C4F20203F8
:1008E800C0F30B001A6F10431867704740F63C635B
:1008F800C4F24723186070474FF46463C4F2472377
:10090800186070474FF4AE73C4F2472318607047FD
:100918004FF46053C4F202031A6B19B922EA0000BB
:100928001863704710431863704700BF4FF4605353
:10093800C4F202035A6B19B922EA000058637047DF
:1009480010435863704700BF4FF46053C4F202036A
:100958009A6B19B922EA00009863704710439863AC
:10096800704700BF4FF46053C4F202031A6C19B900
:1009780022EA00001864704710431864704700BFEB
:100988004FF46053C4F202035A6C19B922EA00000A
:100998005864704710435864704700BF4FF4605361
:1009A800C4F202031A6919B922EA000018617047F3
:1009B80010431861704700BF4FF46053C4F202033C
:1009C8005A6919B922EA0000586170471043586102
:1009D800704700BF4FF46053C4F202039A6919B913
:1009E80022EA00009861704710439861704700BF81
:1009F8004FF46053C4F202031A6A19B922EA0000DC
:100A08001862704710431862704700BF4FF4605374
:100A1800C4F202035A6A19B922EA00005862704700
:100A280010435862704700BF4FF46053C4F202038A
:100A38001A6D19B922EA0000186570471043186545
:100A4800704700BF4FF46053C4F202035A6D19B9DE
:100A580022EA00005865704710435865704700BF88
:100A68004FF46053C4F202039A6D19B922EA0000E8
:100A78009865704710439865704700BF4FF46053FE
:100A8800C4F202031A6E19B922EA00001866704708
:100A980010431866704700BF4FF46053C4F2020356
:100AA8005A6E19B922EA0000586670471043586612
:100AB800704700BF43F60D03C4F202031A7819B950
:100AC80022EA00001870704710431870704700BF82
:100AD8004309012B0ED0022B4FF46053C4F20203DA
:100AE80000F01F000CBF1B6F5B6F23FA00F000F0D3
:100AF800010070474FF46053C4F2020300F01F0076
:100B08001B6823FA00F000F0010070474FF46053AF
:100B1800C4F202035A6F42F080725A67704700BFEE
:100B28004FF46053C4F20203DB6818420CBF002084
:100B38000120704743F60E03C4F202031870704791
:100B480008B50023C4F2020398423CD04FF48063F6
:100B5800C4F20203984240D04FF40063C4F2020387
:100B6800984244D04FF44063C4F20203984248D0FC
:100B78004FF48053C4F2020398424CD04FF4A05370
:100B8800C4F20203984250D04FF4C053C4F2020397
:100B9800984254D04FF4E053C4F20203984258D01C
:100BA8004FF40053C4F20203984200D008BD4FF43A
:100BB80080700121FFF7F2FE4FF480700021BDE83C
:100BC8000840FFF7EBBE01200146FFF7E7FE0120D2
:100BD8000021BDE80840FFF7E1BE02200121FFF730
:100BE800DDFE02200021BDE80840FFF7D7BE042043
:100BF8000121FFF7D3FE04200021BDE80840FFF7DC
:100C0800CDBE08200121FFF7C9FE08200021BDE85C
:100C18000840FFF7C3BE10200121FFF7BFFE1020D8
:100C28000021BDE80840FFF7B9BE20200121FFF7E9
:100C3800B5FE20200021BDE80840FFF7AFBE4020E8
:100C48000121FFF7ABFE40200021BDE80840FFF777
:100C5800A5BE80200121FFF7A1FE80200021BDE86C
:100C68000840FFF79BBE00BF00222DE9F043134662
:100C78000E6801274FF0030C04E00133102B02F13A
:100C880002022ED007FA03F404EA0605A542F4D1BD
:100C9800D0F8008091F804E00CFA02F4E44304EA86
:100CA8000808C0F80080D0F800800EFA02F90EF1AA
:100CB800FF3E5FFA8EFE49EA0808BEF1010FC0F850
:100CC800008010D9C56891F807E02C40C460C56859
:100CD8000EFA02F401332C43102BC46002F1020215
:100CE800D0D1BDE8F083D0F8089091F8058091F84C
:100CF80006E004EA0909C0F80890D0F8089008FA54
:100D080002F848EA0908C0F80880D0F8048028EA00
:100D18000505456045680EFA03FE1FFA8EFE4EEA89
:100D280005054560CEE700BF00234FF6FF7202605D
:100D3800037143718371C371704700BF82B04FF470
:100D480080330193019B0B430193019BC361C161F4
:100D5800019BC361C3690193C369019302B07047E2
:100D6800036919420CBF002001207047006980B256
:100D7800704700BF436919420CBF0020012070472B
:100D8800406980B2704700BF018370474183704754
:100D98000AB9418370470183704700BF41617047BA
:100DA8004369594041617047CB0800EB830001F06B
:100DB800070110B48900046A0F238B4024EA030357
:100DC8000362036A5DF8044B8A4013430362704769
:100DD80008B50023C4F2010398425BD0B0F1804FFC
:100DE80062D04FF48063C4F20003984266D04FF497
:100DF8000063C4F2000398426AD04FF44063C4F21F
:100E0800000398426ED04FF48053C4F20003984216
:100E180072D04FF4A053C4F20003984276D04FF436
:100E28008063C4F2010398427AD04FF48043C4F23D
:100E3800010398427ED04FF48843C4F201039842DC
:100E480000F084804FF49043C4F20103984200F00C
:100E580089804FF4C053C4F20003984200F08E809A
:100E68004FF4E053C4F20003984200F091804FF42D
:100E78000053C4F20003984200D008BD4FF48070BC
:100E88000121FFF7B5FD4FF480700021BDE808404F
:100E9800FFF7AEBD01200146FFF7B8FD0120002194
:100EA800BDE80840FFF7B2BD01200146FFF7A0FDED
:100EB80001200021BDE80840FFF79ABD022001216A
:100EC800FFF796FD02200021BDE80840FFF790BD1E
:100ED80004200121FFF78CFD04200021BDE8084013
:100EE800FFF786BD08200121FFF782FD08200021B9
:100EF800BDE80840FFF77CBD10200121FFF778FD11
:100F080010200021BDE80840FFF772BD2020012114
:100F1800FFF76EFD20200021BDE80840FFF768BDFF
:100F280002200121FFF772FD02200021BDE80840E0
:100F3800FFF76CBD4FF480300121FFF767FD4FF4D8
:100F480080300021BDE80840FFF760BD4FF4003055
:100F58000121FFF75BFD4FF400300021BDE8084098
:100F6800FFF754BD4FF480200121FFF74FFD4FF4E8
:100F780080200021BDE80840FFF748BD402001213E
:100F8800FFF736FD40200021BDE80840FFF730BDDF
:100F980080200121FFF72CFD80200021BDE80840BA
:100FA800FFF726BD70B400224FF48064C4F201023A
:100FB8000388C4F20104904218BFA0429BB214BF38
:100FC8000022012208D04FF48064C4F20004A04239
:100FD80018BFB0F1804F23D14FF68F754C881D4054
:100FE80045EA04034FF4A0564FF48055C4F20005B7
:100FF800C4F20006B04218BFA8421FBF0D894FF6C1
:10100800FF441C4044EA05034D680C880380C56210
:1010180004850AB18B7A03860123838270BC7047EA
:101028004FF400654FF44064C4F20005C4F20004B4
:10103800A04218BFA842D5D1CEE700BF00234FF089
:10104800FF3242600380038143808372704700BF90
:1010580001858282704700BF038823F070031B0458
:101068001B0C19430180704741627047C162704789
:10107800406A7047008D80B2704700BF038829B965
:1010880023F002031B041B0C038070479BB243F040
:1010980002030380704700BF038829B923F00403C3
:1010A8001B041B0C038070479BB243F004030380AE
:1010B800704700BF038829B923F080031B041B0C69
:1010C800038070479BB243F080030380704700BFE2
:1010D800038823F008031B041B0C038003889BB2BE
:1010E80019430180704700BF038823F440731B0431
:1010F8001B0C038003889BB219430180704700BF13
:10110800038829B923F001031B041B0C03807047D3
:101118009BB243F001030380704700BFF0B5048C15
:101128008D89B1F802E00F8824F001042404240C0E
:101138000484028C8488038B4EEA050E22F0020296
:1011480023F073034FF48066002512041B04C4F2D5
:101158000106C4F20105120C1FFA8EFE1B0CA842F0
:1011680018BFB0424EEA0202A4B243EA070317D1FD
:101178004FF6F775B1F80EE0B1F812C00E8A8F88F5
:10118800154045EA0E0E4FF6FB724CEA06064FF67E
:10119800FF450EEA0202B6B225403A4346EA050484
:1011A80089688480038341630284F0BD2DE9F0419E
:1011B800048C8D89B1F802E00F8824F0100424040F
:1011C800240C0484028C8488038B22F020021204ED
:1011D80023F4E643120C42EA05121B044FF480661E
:1011E80000251B0CC4F20106C4F2010542EA0E12E6
:1011F80043EA0723A84218BFB04292B2A4B29BB2F6
:1012080019D14FF67F76B1F80E80B1F810C0B1F859
:1012180004E04F8A16404FF2FF3546EA08164FF6AB
:10122800BF722540324045EA8C0442EA0E1244EA75
:10123800870492B2A4B2896884800383816302849C
:10124800BDE8F0812DE9F041048C8D89B1F802E008
:101258000F8824F480742404240C0484028C848869
:10126800838B22F400721204120C42EA052223F046
:1012780073034FF4806600251B04C4F20106C4F210
:10128800010542EA0E221B0CA84218BFB04292B2D6
:10129800A4B243EA070319D14FF2FF76B1F80E80E2
:1012A800B1F810C0B1F804E04F8A16404CF6FF754B
:1012B80046EA08264FF6FF322540324045EA0C142C
:1012C80042EA0E2244EA071492B2A4B289688480E2
:1012D8008383C1630284BDE8F08100BFF0B5048C4C
:1012E8008D89B1F802E00F8824F480542404240C7A
:1012F8000484028C8488838B22F400521204120C1A
:1013080042EA05324FF480660025C4F20105C4F2B2
:101318000106A84218BFB04223F4E64308BF0E8A6C
:101328008968A4B208BF4BF6FF754FEA034308BFAC
:1013380025404FEA134308BF45EA861442EA0E32B5
:1013480043EA072392B29BB208BFA4B28480838386
:1013580001640284F0BD00BF0023038043808380C2
:1013680083608381C38103824382704730B4058CD4
:101378000124ADB28C404FF6F77325EA04040B4004
:101388000484183073B10439C1F34E0148F6FF7371
:101398000C5823400B5012020B5892B21A430A50B1
:1013A80030BC704749084FF68F7344582340435068
:1013B80043581A43425030BC704700BF41637047DE
:1013C80081637047C163704701647047038B23F0E2
:1013D80070031B041B0C194301837047038B23F410
:1013E800E0431B041B0C43EA01218BB203837047C3
:1013F800838B23F070031B041B0C194381837047F4
:10140800838B23F4E0431B041B0C43EA01218BB2BA
:1014180083837047038B23F008031B041B0C1943B9
:1014280001837047038B23F400631B041B0C43EAFE
:1014380001218BB203837047838B23F008031B04BD
:101448001B0C194381837047838B23F400631B04AF
:101458001B0C43EA01218BB283837047038B23F073
:1014680004031B041B0C194301837047038B23F4EB
:1014780080631B041B0C43EA01218BB20383704772
:10148800838B23F004031B041B0C194381837047CF
:10149800838B23F480631B041B0C43EA01218BB26A
:1014A80083837047038B23F080031B041B0C1943B1
:1014B80001837047038BC3F30E0343EA01218BB208
:1014C80003837047838B23F080031B041B0C194391
:1014D80081837047838BC3F30E0343EA01218BB2E8
:1014E80083837047038C23F002031B041B0C1943EE
:1014F80001847047038C23F008031B041B0C194359
:1015080001847047038C23F020031B041B0C43EA5F
:1015180001118BB203847047038C23F080031B04F2
:101528001B0C43EA01118BB203847047038C23F42C
:1015380000731B041B0C43EA01218BB20384704720
:10154800038C23F400631B041B0C43EA01218BB2B8
:1015580003847047038C23F400531B041B0C43EAD9
:1015680001318BB203847047038C10B401248C4082
:101578009BB223EA04030384038C5DF8044B8A407E
:1015880013439BB203847047038C10B404248C402B
:101598009BB223EA04030384038C5DF8044B8A405E
:1015A80013439BB2038470470B88F0B4002B32D0EE
:1015B800042B59D0082B4E88038C00F084808F8828
:1015C8000D89CC8823F480510904090C0184828B8D
:1015D800038C22F4407223F4005312055B04120DAD
:1015E8005B0C42EA072243EA063342EA05329BB221
:1015F80043F4805392B282830384838B23F4406341
:101608001B041B0C8383838B9BB243EA04239BB28A
:101618008383F0BC7047038C4E888D880F89CC88F3
:1016280023F001010904090C0184028B038C22F0C8
:10163800F3021204120C23F00A0342EA07121B04F5
:1016480046F0010192B21B0C2A430B430283038428
:10165800038B23F00C031B041B0C0383038B9BB22B
:1016680023430383F0BC7047038C4E888D880F8911
:10167800CC8823F010010904090C0184028B038C27
:1016880022F44072120523F0A003120D1B0442EA53
:1016980007321B0C43EA061392B242EA05229BB2B8
:1016A80043F0100392B202830384038B23F4406354
:1016B8001B041B0C0383038B9BB243EA04239BB2DA
:1016C8000383F0BC70478D880F89CC8823F4807120
:1016D8000904090C0184828B038C22F0F30223F4A1
:1016E800206312041B04120C1B0C42EA071243EA83
:1016F800062392B29BB243F480732A438283038405
:10170800838B23F00C031B041B0C8383838B9BB2FA
:10171800234383837DE700BF002301228280038067
:101728004380C380038170472DE9F0414B888E8840
:101738000A88002B0CBF02270027012E14BF4FF088
:10174800010E4FF0020E002A55D0058CB1F8088022
:10175800B1F806C025F010052D042D0C0584048B66
:10176800018C24F44074240521F0A001240D0904FF
:10177800090C44EA083441EA0313A4B244EA0626F1
:101788009BB243F01003B6B206830384018B21F4A5
:1017980040610904090C0183038B9BB243EA0C23C3
:1017A8009BB20383018C21F001010904090C018417
:1017B800028B038C22F0F302120423F00A03120CAA
:1017C8001B0442EA08121B0C43F0010392B21F43A8
:1017D80042EA0E0EA0F818E00784038B23F00C03EE
:1017E8001B041B0C0383038B9BB243EA0C0CA0F86D
:1017F80018C0BDE8F081028CB1F808C0CD8822F08D
:1018080001021204120C0284018B048C21F0F301F2
:101818000904090C24F00A0441EA0C11240443F0D9
:10182800010389B2240C1C430E4306830484038BF2
:1018380023F00C031B041B0C0383038B9BB22B4369
:101848000383038C23F010031B041B0C0384028BFB
:10185800038C22F44072120523F0A003120D1B041E
:1018680042EA0C321B0C43F0100392B243EA07170A
:1018780042EA0E2EA0F818E00784038B23F4406395
:101888001B041B0C0383038B9BB243EA0525ADB2F3
:101898000583BDE8F08100BF406B7047806B7047DF
:1018A800C06B7047006C7047038B23F00C031B045C
:1018B8001B0C0383038B9BB219430183704700BF42
:1018C800038B23F440631B041B0C0383038B9BB221
:1018D80043EA01218BB20383704700BF838B23F057
:1018E8000C031B041B0C8383838B9BB219438183DA
:1018F800704700BF838B23F440631B041B0C838356
:10190800838B9BB243EA01218BB28383704700BF6C
:10191800F0B50B88B1F802E08F88CE880D894C8924
:101928008A894EEA03033B4333432B432343134340
:101938009BB2A0F84430F0BD00230380438083802D
:10194800C380038143818381704700BFB0F844306E
:1019580021B9C3F30E03A0F8443070476FEA43433C
:101968006FEA53439BB2A0F844307047838829B983
:1019780023F004031B041B0C838070479BB243F0C5
:1019880004038380704700BF838829B923F00103CB
:101998001B041B0C838070479BB243F001038380B8
:1019A800704700BF83899BB21AB923EA010181817C
:1019B800704719438181704781827047038A1942B1
:1019C8000CBF002001207047C94389B201827047CB
:1019D800038A828911420CBF0020012019420CBFE2
:1019E800002000F001007047C94389B201827047A6
:1019F8000A43A0F84820704783899BB21AB923EAA2
:101A0800010181817047194381817047838829B911
:101A180023F008031B041B0C838070479BB243F020
:101A280008038380704700BF038923F007031B0462
:101A38001B0C0381704700BF038923F070031B044C
:101A48001B0C1943018103899BB243F007030381EF
:101A5800704700BF602970B427D0068C26F00106B5
:101A68003604360C0684058B048C25F0F3052D040A
:101A780024F00A042D0C240445F00105240C45EA41
:101A8800031344F001049BB22243038302840389B5
:101A980023F070031B041B0C0B43038103899BB2C7
:101AA80043F00703038170BC7047048C24F01004D2
:101AB8002404240C0484058B048C25F4407524F03C
:101AC800A0042D0524042D0D240C45F4807544F044
:101AD800100445EA033344EA02129BB292B203832C
:101AE8000284D4E710B4048942EA0323E4B223430E
:101AF8009BB21943018103895DF8044B23F07703F6
:101B08001B041B0C43F077030381704710B404894E
:101B180042EA0323E4B223439BB2194301810389B8
:101B28005DF8044B9BB243F480430381704700BFC8
:101B3800038923F070031B041B0C194301817047B0
:101B4800838823F070031B041B0C838083889BB25B
:101B580019438180704700BF038923F007031B04E2
:101B68001B0C038103899BB219430181704700BF95
:101B7800038923F080031B041B0C038103899BB298
:101B880019430181704700BF10B40489E4B22143AE
:101B98000A4342EA03239CB204815DF8044B704770
:101BA80070B40589048B068C24F4407426F0220650
:101BB80024F003043604360C25F0070524043243C8
:101BC8002D04240C2D0C44F4807442EA0313294399
:101BD80044F001049EB201810483068470BC7047FE
:101BE800838829B923F080031B041B0C838070476A
:101BF8009BB243F080038380704700BFA0F8501069
:101C0800704700BF08B54FF48053C4F201039842EF
:101C180028D04FF48843C4F2000398422CD04FF4E4
:101C28009043C4F20003984232D04FF49843C4F270
:101C38000003984238D04FF4A043C4F200039842FE
:101C48003ED04FF4A053C4F20103984200D008BD1F
:101C580020200121FEF7DAFE20200021BDE80840FF
:101C6800FEF7D4BE10200121FEF7D0FE102000217F
:101C7800BDE80840FEF7CABE4FF400300121FEF768
:101C8800B7FE4FF400300021BDE80840FEF7B0BEB3
:101C98004FF480200121FEF7ABFE4FF48020002195
:101CA800BDE80840FEF7A4BE4FF400200121FEF76E
:101CB8009FFE4FF400200021BDE80840FEF798BEC3
:101CC8004FF480100121FEF793FE4FF4801000219D
:101CD800BDE80840FEF78CBE028ACB8822F4405249
:101CE8001204F0B5120C04461A430F898E884889ED
:101CF8000D4689892282A38923F4B05347EA060254
:101D080023F00C0302431B0492B21B0C1343A38160
:101D1800A38A23F440731B041B0C85B00B43A382D6
:101D28006846FEF76FFDA6890298039B4FF4A05101
:101D38004FF48052C4F20101C4F20102944218BF68
:101D48008C4232B218BF0346002A2A68A08903EBE6
:101D58008303B4BF5200920003EB8303B3FBF2F397
:101D680048F21F52C5F2EB12A2FB035100B26425E0
:101D78004909002801FB1533B5BFDB001B013233CD
:101D88003233B5BFA2FB0302A2FB0352C2F34212D5
:101D9800C2F343120901114389B2218105B0F0BD94
:101DA80000234FF416510C22016042818380C380C6
:101DB80003818381704700BF30B40A884D888C88BE
:101DC800038AC9882A43224323F470630A431B0405
:101DD80092B21B0C1343038230BC7047002303806C
:101DE80043808380C3807047838929B923F40053D3
:101DF8001B041B0C838170479BB243F400538381FF
:101E0800704700BF038B03F47F430383038B9BB2AC
:101E180019430183704700BF838919B9C3F30E03BF
:101E2800838170476FEA43436FEA53439BB28381D0
:101E3800704700BF838A29B923F400631B041B0C75
:101E4800838270479BB243F400638382704700BF6C
:101E5800C1F30801818070478088C0F3080070478B
:101E6800038A23F00F031B041B0C0382038A9BB213
:101E780019430182704700BF838929B923F00203FF
:101E88001B041B0C838170479BB243F002038381C0
:101E9800704700BF838923F400631B041B0C8381F4
:101EA80083899BB219438181704700BF038A23F05D
:101EB80020031B041B0C0382038A9BB21943018273
:101EC800704700BF038A29B923F480431B041B0C05
:101ED800038270479BB243F480430382704700BF7C
:101EE80083899BB243F0010383817047838A29B9B0
:101EF80023F008031B041B0C838270479BB243F03A
:101F080008038382704700BF038BDBB20383038B14
:101F18009BB243EA01210183704700BF838A29B934
:101F280023F020031B041B0C838270479BB243F0F1
:101F380020038382704700BF838A29B923F01003E6
:101F48001B041B0C838270479BB243F010038382EF
:101F5800704700BF838A23F004031B041B0C838291
:101F6800838A9BB219438182704700BF838A29B94B
:101F780023F002031B041B0C838270479BB243F0BF
:101F880002038382704700BF838A9BB21AB923EA8F
:101F980001018182704719438182704701F01F0354
:101FA80010B4C1F342110124A14204FA03F308BF9B
:101FB8000C3003D002290CBF1030143004682AB941
:101FC80024EA030303605DF8044B7047234303606E
:101FD8005DF8044B704700BF038819420CBF00200E
:101FE80001207047C94389B201807047C1F3421389
:101FF80030B401F01F020124012B04FA02F416D0B8
:10200800022B0CBF028A828A92B2224003880125E1
:10201800090A05FA01F19BB219420CBF0020012000
:10202800002A0CBF002000F0010030BC70478289F4
:1020380092B22240EAE700BF090A012303FA01F13C
:10204800C94389B20180704710EE103A23F000406E
:10205800C10D7F39162910B420DC00291C462ADB63
:102068004FF6FF70C0F27F00084118421ED0DFED26
:102078001C7A70EE277AF5EEC07AF1EE10FA15DDCB
:10208800002BBEBF4FF4000343FA01F1641824EAA1
:10209800000000EE100A5DF8044B7047B0F1FF4FE6
:1020A80024BF07EE903A37EEA70AF4D200EE103AB2
:1020B8005DF8044B7047DFED0A7A70EE277AF5EE8B
:1020C800C07AF1EE10FAF1DD002B02DB9FED050A74
:1020D800E1E70028BFEE000A08BF00EE103ADAE791
:1020E800CAF249710000000070B52DED048B40F272
:1020F8002406C2F200068AB0B0EE409AB0EE608ABA
:1021080000F0ACF996F900300133F0EE408A04D0C3
:10211800B0EE480A00F0ECFC28B9B0EE680A0AB044
:10212800BDEC048B70BDB0EE490A00F0E1FC03463B
:1021380078BBB5EE408AF1EE10FAEED148F21042C3
:10214800C0F60002012119EE100A08938DE8060076
:1021580000F06CFFCDE9020118EE100A00F066FFEE
:1021680096F9004000230022C3F6F073B4F1FF3F54
:1021780018BF022CCDE90401CDE9062336D1DDE9EB
:10218800060101F041FA00EE100A0AB0BDEC048B1A
:1021980070BDB5EE409AF1EE10FA34D1B5EE408A32
:1021A800F1EE10FA73D148F21043C0F60003002292
:1021B800012119EE100A8DE80A00089200F036FF96
:1021C800CDE9020118EE100A00F030FF96F9004040
:1021D80000220023CDE90401CDE9062334B1002310
:1021E8000022C3F6F073CDE90623C8E7684600F07D
:1021F80013FD00287DD0089B002BC0D006F02CE8EA
:10220800089B0360BBE7B0EE680A00F067FC044671
:10221800002873D0F5EE408AF1EE10FA7FF47DAF16
:10222800B0EE490A00F05AFC00283FF476AFB0EE51
:10223800480A00F053FC00283FF46FAF48F21043FF
:10224800C0F600030022042119EE100A8DE80A00E6
:10225800089200F0EBFECDE9020118EE100A00F03A
:10226800E5FE96F9004000220023022CCDE9040186
:10227800CDE9062300F09B80684600F0CDFC0028DD
:1022880000F09580089B002B3FF479AFB6E7B0EEDD
:10229800480A00F023FC00283FF43FAFB5EEC08A9F
:1022A800F1EE10FA7FF539AF48F21043C0F600039B
:1022B8000022012119EE100A8DE80A00089200F0A8
:1022C800B5FECDE9020118EE100A00F0AFFE347831
:1022D800CDE9040100220023002C3BD0CFF6F07397
:1022E800022CCDE9062337D105F0B6EF2123036090
:1022F800C8E705F0B2EF212303607CE7B0EE490A96
:1023080000F0ECFB002885D0B0EE480A00F0E6FBB0
:1023180000283FF47FAFB0EE680A00F0E9FB48F20E
:1023280010430246C0F60003E0B9012119EE100A75
:1023380008928DE80A0000F079FECDE9020118EE56
:10234800100A00F073FE3478CDE90401002C33D173
:1023580000220023CDE90623684600F05DFC002832
:1023680090D1C1E7032219EE100A8DE80C000894F9
:1023780000F05CFECDE9020118EE100A00F056FEEE
:1023880096F90030CDE904010BBB4FF6FF73B5EEAB
:10239800C09A4FF06042C4F2EF73F1EE10FACDE943
:1023A80006233CD496F90030022B7FF465AF05F084
:1023B80054EF2223036065E70020002102460B4604
:1023C80000F0B2FF022CCDE906018DD0C4E700234E
:1023D800B5EEC09A0022C7F6F073F1EE10FACDE917
:1023E8000623DFD5F6EE007A68EE277A17EE900A14
:1023F80000F01CFE04460D4645EC104B00F00EFCA8
:102408002046294653EC102B01F0CCF80028C9D1FE
:1024180000230022CFF6F073CDE90623C2E7F6EEDB
:10242800007A68EE277A17EE900A00F0FFFD04465E
:102438000D4645EC104B00F0F1FB2046294653ECC5
:10244800102B01F0AFF80028ACD14FF6FF734FF016
:102458006042CCF2EF73CDE90623A3E72DE9F047FC
:1024680010EE907A37F000452DED028B10EE904A71
:1024780010EE108A4BD028F00046B5F1FF4FD8BFB8
:10248800B6F1FF4F10EE109AD4BF002301233BDCB6
:10249800B8F1000FA8BF9A4672DBB5F1FF4F46D0DE
:1024A800B5F17E5F4DD0B4F1804F04BF06EE108ABF
:1024B80026EE060A2DD0B4F17C5F00EE108A02D118
:1024C800B9F1000F7EDA00F001FB002E45D029F0AB
:1024D8004043B3F17E5F40D04FEAD97909F1FF3923
:1024E8005AEA090274D0B5F19A4F40F3B1804FF619
:1024F800F773C3F67F739E4200F30982002CC0F283
:102508000E829FED3A0A04E0B6F17E5F05D1B7EE80
:10251800000ABDEC028BBDE8F087BDEC028B48F2E7
:102528003840C0F60000BDE8F04700F0FDBAB6F14B
:102538007E5FECD03EDD002CA8BF00EE107AE8DA12
:10254800DFE7002CA8BF00EE108AE2DA05EE908AD9
:10255800B7EE000A80EE250ADBE7002CBCBFF7EED9
:10256800007A87EE800AB9F1000FD2DAA6F17E561A
:102578005AEA060633D130EE400A80EE000AC8E770
:10258800B5F1974F13DAB5F17E5F0EDBEA15C2F1AC
:10259800960245FA02F101FA02F2AA4204BF01F0DA
:1025A8000101C1F1020A3FF47BAF9A4678E74FF088
:1025B800020A72E7002CBCBF04EE107AB1EE440A9E
:1025C8009FDAA6E7BDEC028BBDE8F04700F02CBA15
:1025D80004EE108A34EE440A80EE000A99E7BAF154
:1025E800010F08BFB1EE400A93E700BF00000000EA
:1025F8000000804B42F1533E55326C3E05A38B3EA2
:10260800B76DDB3E9A99193F4F38763FA0C39D3688
:102618000038763F8CBEBF351872313F0072313FAB
:102628004CBB31330EEADDB555B38A38610B36BB86
:10263800ABAA2A3E3CAA3833CAF249716042A20DBD
:10264800ABAAAA3E3BAAB83F70A5EC3600AAB83F91
:10265800B6F5000FBCBF5FED1A7A60EE277A4CF230
:102668007143B8BF17EE906AC0F21C034FEAE652F6
:10267800C6F31606B4BF6FF0170000209E42A2F101
:102688007F02D8BF00211044D8BF0D4646F07E52C5
:102698000EDD4BF2D633C0F25D039E42CDBF002162
:1026A8004FF4001101250130C4BFA2F500020D4608
:1026B80048F26823C0F6000303EB850305EE102AF1
:1026C800D3ED003A75EE237AB7EE003A83EE273A57
:1026D800521042F0005202F580220A4475EE635A05
:1026E8005FED3C7A65EE836A1FED3D6A26EEA67AB9
:1026F80002EE902AA7EE276A16EE902A1FED414AAD
:1027080022F47F62A6EE074A22F00F0207EE902A13
:102718005FED354AB1EE676AE4EE074A72EEE33AD6
:10272800E6EE225A35EE634A1FED4B5AE6EE045A9E
:10273800A4EE875A5FED4D4A65EE833AE5EE074A07
:1027480076EEA75A27EE077A65EEA35AB0EE084A46
:10275800E7EE245AB0EE447AA7EEA77A93ED023A50
:1027680037EE257A1FED582A17EE102A22F47F62D9
:1027780022F00F0207EE102A37EE445A93ED044A6E
:10278800A6EE275A5FED5F2A75EEC55A5FED604ADF
:1027980065EEA66A05EE900AE3EE876AB8EEE55A9A
:1027A800F0EE665AE7EE875A15EE902A22F47F6219
:1027B80022F00F0305EE903AE6EE075A07EE903A3C
:1027C80076EEE56A66EE826AE7EEA26A76EE836ADC
:1027D800B0EE667AA7EEA47A37EE047A37EE057A79
:1027E80017EE103A23F47F6323F00F0306EE103A36
:1027F80036EE457A37EE447AA7EEE47A76EEC77A73
:1028080024F47F6424F00F0406EE907A04EE104A54
:1028180005EE903A36EEC47A66EEA77A65EE846ADB
:10282800E7EE257A0AF1FF3A37EEA67A5AEA090A5C
:1028380017EE103AB7EE008ABFEE006A08BFB0EE96
:10284800468A002B23F0004240F3A780B2F1864F5E
:1028580075DC69D0B2F17C5FDCBF0022104675DC04
:1028680023F47F6323F00F0307EE103A1FED976AF6
:1028780077EE666A27EE066A77EEE67A5FED9A6A81
:10288800A7EEA66A5FED9B4AF0EE467AE7EE247A59
:102898005FED9D5A67EEA76A1FED9E5AA6EEA55AF0
:1028A8005FED9F5AE5EE265A1FEDA05AA5EEA65AEF
:1028B8005FEDA15AE5EE265AB0EE674AA5EEE64A64
:1028C800F0EE675AE7EE645AB0EE005AB0EE657A59
:1028D80074EE456A67EE845A36EE477AC5EEA66A04
:1028E800A7EE877AB7EE000A36EEC77A77EE677AF0
:1028F80030EE670A10EE103A1344B3F5000FA8BF84
:1029080000EE103AC0F28D8028EE000A01E6072397
:10291800C3F680739E4255DD002C7FF7F2AD1FEDA4
:10292800BA0A20EE000AF4E51FEDBE6A37EE667AB1
:1029380037EE866AB4EEC76AF1EE10FA06DD5FED8F
:10294800C27A28EE270A20EE270AE2E5D2154FF4CC
:1029580000017E3A41FA02F21A44C2F3C7504FF618
:10296800FF71A0F17F05C0F27F01294122EA010130
:1029780006EE101AC2F3160476EEC66AC0F1960087
:1029880044F4000444FA00F0002B37EEA67AB8BFEE
:102998004042C20517EE103A62E70021C4F2163130
:1029A8008A4208DC7FF456AF37EE667AF4EEC77ACF
:1029B800F1EE10FACAD85FEDDF7A28EE270A20EE8A
:1029C800270AA6E5F7EE007A30EE670A5FEDE47AAB
:1029D800F1EE406AB5EE007AE6EE877AB6EE007A56
:1029E800A7EEC07A20EE006A5FEDEA7A26EE077A53
:1029F8001FEDEB6A67EEC77A1FEDEC7AE0EE067A18
:102A0800F0EE675AE0EE075A15EE903A23F47F632A
:102A180023F00F0306EE103AA6EE876A77EEC67A21
:102A2800EEE600F087F86FE710EE103A23F0004268
:102A3800B2F1FF4F70B442D2002A3ED0002BBCBF87
:102A480030EE400A80EE000A37DBB2F5000F4FEA9D
:102A5800E3510AD213F4000235D15B00180202F1E7
:102A68000102FAD5C2F101021144A1F17F02C3F3B8
:102A78001603D10743F4000348BF5B000025561036
:102A88005B002C4619214FF08072A0189842DEBFD7
:102A9800C0EB03038418AD1801394FEA43034FEA2A
:102AA8005202F2D113B105F001031D446D1005F176
:102AB8007C5505EBC65500EE105A70BC7047A0EE69
:102AC800000A70BC704701221144CEE710EE102AAC
:102AD80022F0004300EE103A704700BF10EE103AA3
:102AE80023F00040B0F1FF4FACBF00200120704739
:102AF80010EE103A33F0004001D102207047A0F5E3
:102B08000003B3F1FE4F01D2042070474FF6FE7365
:102B1800C0F27F03421E9A4201D803207047B0F1E9
:102B2800FF435842584170479FED010A704700BF64
:102B38000000C07F08B510EE103A33F0004110EEE7
:102B4800102A2DED028B08BF00EE103A16D0B1F115
:102B5800FF4F24BF00EE103A30EE000A0ED2B1F556
:102B6800000F0ED3C90D0144FE2930DC00291CDDFD
:102B780022F0FF4242EAC15200EE102ABDEC028B5D
:102B880008BD07EE103ADFED207A43F6B042CFF6E3
:102B9800FF7227EE277A904217EE103A22DBC3F332
:102BA800C75117EE102A1939DDE711F1160F1EDA91
:102BB8004CF2503290420ADC9FED148A00EE903AB3
:102BC800B0EE480A00F0C2F820EE080AD6E79FEDFA
:102BD800108A00EE903AB0EE480A00F0B7F820EEFE
:102BE800080ACBE79FED090A27EE000AC6E7193164
:102BF80022F0FF4242EAC152DFED067A07EE102AC0
:102C080027EE270ABAE700BF0000004C6042A20D79
:102C1800CAF249710000003300207047F0B551EC4A
:102C2800100BC1F30A52A2F2FF33132B83B00F46E5
:102C380010EE10EA4FEAD17639DC002B59DB4FF65B
:102C4800FF72C0F20F021A4102EA010404432CD0B9
:102C5800520802EA010E5EEA000E0DD04FF48027FA
:102C680021EA020247FA03F142EA0107132B0CBFDB
:102C78004FF0004E4FF0000E48F28023C0F60003DC
:102C880003EBC6063D46D6E9006772462B4630463A
:102C9800394600F06DF8CDE9000132463B46DDE9E2
:102CA800000100F063F841EC100B03B0F0BD332BCA
:102CB8000CDDB3F5806FF8D151EC100B10EE102A33
:102CC8000B4600F055F841EC100BEEE7A2F2134268
:102CD8004FF0FF33D3400342E7D05B0803421FBFE6
:102CE8004FF0804E20EA03034EFA02F243EA020E46
:102CF800C2E721F000430343D7D0C1F313030343D2
:102D08005D422B4348F280201D0BC0F600004C0C9E
:102D180000EBC60005F4002153EC102B41EA4443B4
:102D2800D0E900452046294600F022F8CDE9000107
:102D38002B462246DDE9000100F018F821F0004397
:102D480043EAC67141EC100BAFE700BF10EE101A52
:102D580021F0004210EE901A01F00043134300EEF8
:102D6800103A704781F0004102E000BF83F0004351
:102D780030B54FEA41044FEA430594EA050F08BF0E
:102D880090EA020F1FBF54EA000C55EA020C7FEAD2
:102D9800645C7FEA655C00F0E2804FEA5454D4EB4F
:102DA8005555B8BF6D420CDD2C4480EA020281EA19
:102DB800030382EA000083EA010180EA020281EA51
:102DC8000303362D88BF30BD11F0004F4FEA0131A3
:102DD8004FF4801C4CEA113102D0404261EB4101B2
:102DE80013F0004F4FEA03334CEA133302D0524238
:102DF80063EB430394EA050F00F0A780A4F10104F4
:102E0800D5F1200E0DDB02FA0EFC22FA05F280182D
:102E180041F1000103FA0EF2801843FA05F3594113
:102E28000EE0A5F120050EF1200E012A03FA0EFC92
:102E380028BF4CF0020C43FA05F3C01851EBE371BC
:102E480001F0004507D54FF0000EDCF1000C7EEBD9
:102E580000006EEB0101B1F5801F1BD3B1F5001F17
:102E68000CD349085FEA30004FEA3C0C04F1010436
:102E78004FEA445212F5800F80F09A80BCF1004F5F
:102E880008BF5FEA500C50F1000041EB045141EAE1
:102E9800050130BD5FEA4C0C404141EB010111F4E2
:102EA800801FA4F10104E9D191F0000F04BF01468D
:102EB8000020B1FA81F308BF2033A3F10B03B3F16B
:102EC80020020CDA0C3208DD02F1140CC2F10C02FB
:102ED80001FA0CF021FA02F10CE002F11402D8BF59
:102EE800C2F1200C01FA02F120FA0CFCDCBF41EA25
:102EF8000C019040E41AA2BF01EB0451294330BDF4
:102F08006FEA04041F3C1CDA0C340EDC04F11404D0
:102F1800C4F1200220FA04F001FA02F340EA0300A7
:102F280021FA04F345EA030130BDC4F10C04C4F1ED
:102F3800200220FA02F001FA04F340EA03002946CD
:102F480030BD21FA04F0294630BD94F0000F83F417
:102F5800801306BF81F480110134013D4EE77FEAFA
:102F6800645C18BF7FEA655C29D094EA050F08BF46
:102F780090EA020F05D054EA000C04BF1946104627
:102F880030BD91EA030F1EBF0021002030BD5FEA6B
:102F9800545C05D14000494128BF41F0004130BD93
:102FA80014F580043CBF01F5801130BD01F00045E7
:102FB80045F0FE4141F470014FF0000030BD7FEA5A
:102FC800645C1ABF194610467FEA655C1CBF0B4655
:102FD800024650EA013406BF52EA033591EA030F6C
:102FE80041F4002130BD00BF90F0000F04BF002164
:102FF800704730B54FF4806404F132044FF0000597
:103008004FF0000150E700BF90F0000F04BF00210F
:10301800704730B54FF4806404F1320410F0004575
:1030280048BF40424FF000013EE700BF42004FEA70
:10303800E2014FEA31014FEA02701FBF12F07F43ED
:1030480093F07F4F81F06051704792F0000F14BFEA
:1030580093F07F4F704730B54FF4607401F000452E
:1030680021F0004120E700BF50EA010208BF704785
:1030780030B54FF000050AE050EA010208BF70477A
:1030880030B511F0004502D5404261EB41014FF4E3
:10309800806404F132045FEA915C3FF4DCAE4FF0E7
:1030A80003025FEADC0C18BF03325FEADC0C18BFCE
:1030B800033202EBDC02C2F1200300FA03FC20FA1F
:1030C80002F001FA03FE40EA0E0021FA02F114446C
:1030D800C1E600BF70B54FF0FF0C4CF4E06C1CEA81
:1030E80011541DBF1CEA135594EA0C0F95EA0C0FF6
:1030F80000F0DEF82C4481EA030621EA4C5123EA69
:103108004C5350EA013518BF52EA033541F4801197
:1031180043F4801338D0A0FB02CE4FF00005E1FB4A
:1031280002E506F00042E0FB03E54FF00006E1FB94
:1031380003569CF0000F18BF4EF0010EA4F1FF04D7
:10314800B6F5007F64F5407404D25FEA4E0E6D4117
:1031580046EB060642EAC62141EA55514FEAC52028
:1031680040EA5E504FEACE2EB4F1FD0C88BFBCF5A4
:10317800E06F1ED8BEF1004F08BF5FEA500E50F155
:10318800000041EB045170BD06F0004646EA01011B
:1031980040EA020081EA0301B4EB5C04C2BFD4EB4D
:1031A8000C0541EA045170BD41F480114FF0000E46
:1031B800013C00F3AB8014F1360FDEBF002001F0B4
:1031C800004170BDC4F10004203C35DA0C341BDC2E
:1031D80004F11404C4F1200500FA05F320FA04F000
:1031E80001FA05F240EA020001F0004221F0004134
:1031F80010EBD37021FA04F642EB06015EEA430EA7
:1032080008BF20EAD37070BDC4F10C04C4F12005D6
:1032180000FA04F320FA05F001FA04F240EA020089
:1032280001F0004110EBD37041F100015EEA430E5A
:1032380008BF20EAD37070BDC4F1200500FA05F27A
:103248004EEA020E20FA04F301FA05F243EA0203F9
:1032580021FA04F001F0004121FA04F220EA020008
:1032680000EBD3705EEA430E08BF20EAD37070BD4E
:1032780094F0000F0FD101F00046400041EB01012E
:1032880011F4801F08BF013CF7D041EA060195F010
:10329800000F18BF704703F00046520043EB0303CA
:1032A80013F4801F08BF013DF7D043EA06037047B7
:1032B80094EA0C0F0CEA135518BF95EA0C0F0CD0C2
:1032C80050EA410618BF52EA4306D1D181EA030108
:1032D80001F000414FF0000070BD50EA410606BF02
:1032E8001046194652EA430619D094EA0C0F02D147
:1032F80050EA013613D195EA0C0F05D152EA03368C
:103308001CBF104619460AD181EA030101F00041A9
:1033180041F0FE4141F470014FF0000070BD41F0F2
:10332800FE4141F4780170BD70B54FF0FF0C4CF4CC
:10333800E06C1CEA11541DBF1CEA135594EA0C0FEB
:1033480095EA0C0F00F0A7F8A4EB050481EA030E38
:1033580052EA03354FEA013100F088804FEA03331F
:103368004FF0805545EA131343EA12634FEA0222ED
:1033780045EA111545EA10654FEA00260EF00041AE
:103388009D4208BF964244F1FD0404F5407402D200
:103398005B084FEA3202B61A65EB03055B084FEA91
:1033A80032024FF480104FF4002CB6EB020E75EB8E
:1033B800030E22BFB61A754640EA0C005B084FEAB6
:1033C8003202B6EB020E75EB030E22BFB61A754633
:1033D80040EA5C005B084FEA3202B6EB020E75EB7E
:1033E800030E22BFB61A754640EA9C005B084FEAF6
:1033F8003202B6EB020E75EB030E22BFB61A754603
:1034080040EADC0055EA060E18D04FEA051545EAF1
:1034180016754FEA06164FEAC30343EA52734FEA9A
:10342800C2025FEA1C1CC0D111F4801F0BD141EA13
:1034380000014FF000004FF0004CB6E711F4801F78
:1034480004BF01430020B4F1FD0C88BFBCF5E06F58
:103458003FF6AFAEB5EB030C04BFB6EB020C5FEA68
:10346800500C50F1000041EB045170BD0EF0004EBD
:103478004EEA113114EB5C04C2BFD4EB0C0541EAEF
:10348800045170BD41F480114FF0000E013C90E6EC
:1034980045EA060E8DE60CEA135594EA0C0F08BFB0
:1034A80095EA0C0F3FF43BAF94EA0C0F0AD150EAAF
:1034B80001347FF434AF95EA0C0F7FF425AF104642
:1034C80019462CE795EA0C0F06D152EA03353FF46A
:1034D800FDAE1046194622E750EA410618BF52EAE7
:1034E80043067FF4C5AE50EA41047FF40DAF52EABB
:1034F80043057FF4EBAE12E74FF0FF3C06E000BF58
:103508004FF0010C02E000BF4FF0010C4DF804CD64
:103518004FEA410C7FEA6C5C4FEA430C18BF7FEA24
:103528006C5C1BD001B050EA410C0CBF52EA430C52
:1035380091EA030F02BF90EA020F0020704710F1D2
:10354800000F91EA030F58BF994208BF90422CBF61
:10355800D8176FEAE37040F0010070474FEA410C5A
:103568007FEA6C5C02D150EA013C07D14FEA430C78
:103578007FEA6C5CD6D152EA033CD3D05DF8040BE9
:10358800704700BF8446104662468C46194663461B
:1035980000E000BF01B5FFF7B7FF002848BF10F1F2
:1035A800000F01BD4DF808EDFFF7F4FF0CBF012037
:1035B80000205DF808FB00BF4DF808EDFFF7EAFFB3
:1035C80034BF012000205DF808FB00BF4DF808ED6E
:1035D800FFF7E0FF94BF012000205DF808FB00BF63
:1035E8004DF808EDFFF7CEFF94BF012000205DF8ED
:1035F80008FB00BF4DF808EDFFF7C4FF34BF0120FA
:1036080000205DF808FB00BF4FEA4102B2F1E04339
:1036180024BFB3F5001CDCF1FE5C0DD901F0004CB1
:103628004FEAC0024CEA5070B2F1004F40EB830001
:1036380008BF20F00100704711F0804F21D113F12D
:103648003872BCBF01F00040704741F480114FEA66
:103658005252C2F11802C2F1200C10FA0CF320FAEF
:1036680002F018BF40F001004FEAC1234FEAD3230C
:1036780003FA0CFC40EA0C0023FA02F34FEA430376
:10368800CCE77FEA625307D150EA01331EBF4FF0FF
:10369800FE4040F44000704701F0004040F0FE401A
:1036A80040F40000704700BF70B548F27C4648F20D
:1036B8007C45C0F60005C0F60006761BB6101CBF98
:1036C800043D002405D0013455F8043F9847A6422C
:1036D800F9D148F27C4648F27C45C0F60005C0F6B0
:1036E8000006761BFCF72AFEB6101CBF043D00241A
:1036F80006D0013455F8043F9847A642F9D170BD69
:1037080070BD00BF0CB4F0B59DB022AC0E4654F8A5
:10371800042B029123464FF4027E6FF000454FF6CA
:10372800FF7702A906960194ADF814E00495079571
:10373800ADF8167000F030F8029B00221A701DB028
:10374800BDE8F04002B070470EB4F0B59CB021ACB3
:1037580040F2280154F8042BC2F200010646234621
:103768004FF4027E6FF00045086802964FF6FF7727
:1037780002A906960194ADF814E004950795ADF8F2
:10378800167000F009F8029B00221A701CB0BDE800
:10379800F04003B0704700BF2DE9F04FC3B0069268
:1037A8000B9309910D9002F07FFA0068159003F0D1
:1037B80095FB099C1890A3891A0603D52369002B49
:1037C80001F00D800DF1C7040394039C0DF1C80AA4
:1037D800C4EB0A0448F290261B9448F2584400238C
:1037E800C0F60006C0F600040E932793269316939E
:1037F8001793149319930F9306F11009CDF894A019
:1038080057461294069C2378252B18BF002B00F0EE
:10381800AB80621C144601322378252B18BF002B7D
:10382800F8D10698251A0ED0269B279A38600133BE
:103838002A44072B7D6027922693D8BF083779DC66
:103848000F9929440F912378002B7BD000231A4627
:103858008DF87730079304934FF0FF3301340593C5
:10386800114625780134A5F12003582B00F2CB83AB
:10387800DFE813F02B03C903C903B903C903C9035C
:10388800C903C903C903C903C0037C00C9035B009A
:103898003102C903A102C802C802C802C802C8028C
:1038A800C802C802C802C802C903C903C903C903B8
:1038B800C903C903C903C903C903C9034B02650284
:1038C800C9036502C903C903C903C903A602C90319
:1038D800C903B002C903C903C903C903C9032F0334
:1038E800C903C9034403C903C903C903C903C903F5
:1038F800C903C903C903C903C9035E037203650287
:103908006502650285037203C903C9038A03C903F3
:103918008F037E00A103D602C903DD02C903250275
:10392800C903C9030C0349420B93049B43F00403E6
:10393800049396E70D98099925AA03F0FFFA40B970
:1039480057467DE7279B23B10D98099925AA03F0CF
:10395800F5FA099C0F98A38913F0400F18BF4FF090
:10396800FF3043B0BDE8F08F069C6CE72B2278E768
:103978000694049C079114F0100300F036820B9C07
:103988002368043400210B9400228DF87720059CCD
:10399800002CA2BF049C24F080040494059C002BF6
:1039A80008BF002C0CBF0020012000F0AB830129C8
:1039B80000F0E48402290DF1C70140F06581DDF8CB
:1039C80050E003F00F000C461EF800101B09217090
:1039D80004F1FF31F5D1C4EB0A030C930C99059857
:1039E80000238142B8BF0146089113932AB1DDF83C
:1039F80020E00EF1010ECDF820E0049B13F0020345
:103A080018BFDDF820E01093049B1CBF0EF1020ED6
:103A1800CDF820E013F08403119340F00883079851
:103A28000899C1EB0008B8F1000F40F30083B8F122
:103A3800100F48F2902340F37F87C0F600031A95D1
:103A480038462799269A0A9327464FF0100B0D9C63
:103A5800099D04E0A8F11008B8F1100F19DD013232
:103A68001031072A80E8400827912692D8BF0830ED
:103A7800F0DD2046294625AA03F060FA00287FF4E5
:103A880068AFA8F11008B8F1100F2799269A504688
:103A9800E5DC1A9D3C46074601320A9B269208EB54
:103AA800010C072ACDF89CC087E8080100F372844E
:103AB8009DF87720083782B1269B01330CF1010C61
:103AC8000DF177010122072B87E80600CDF89CC08D
:103AD8002693D8BF083700F3E183109B7BB1269B60
:103AE80001330CF1020C1EA90222072B87E80600FD
:103AF800CDF89CC02693D8BF083700F3DB83119B11
:103B0800802B00F01183059A0C9BC3EB0208B8F1D7
:103B1800000F4EDDB8F1100FD8BFAD48269BD8BFB7
:103B28000A902FDDAA49059530460A913A4646463D
:103B380027464FF0100B61460D9C099D804602E018
:103B4800103E102E17DD01331031072B82E8000AD2
:103B580027912693D8BF0832F2DD2046294625AAA8
:103B680003F0ECF900287FF4F4AE103E102E2799EC
:103B7800269B5246E7DC3C46059D174642468C4646
:103B8800B046164601330A9A2693C444072B87E8A1
:103B98000401CDF89CC0D8BF08370ADD0D980999F3
:103BA80025AA03F0CBF900287FF4D3AEDDF89CC03A
:103BB8005746049BDB0500F13D82269B3C600C9C2C
:103BC8000133A444072BCDF89CC07C60269300F3F6
:103BD8004B830837049C630746D507980899441A0D
:103BE800002C41DD102C48F2902340F3C78648F2A0
:103BF8009020C0F60000269B0A9010256246DDF84A
:103C08003480DDF824B002E0103C102C17DD0133BD
:103C18001032072B3E607D6027922693D8BF083765
:103C2800F2DD4046594625AA03F088F900287FF4BA
:103C380090AE103C102C279A269B5746E7DC9446FA
:103C480001330A992693A444072BCDF89CC087E832
:103C5800120009DD0D98099925AA03F06FF90028CB
:103C68007FF477AEDDF89CC00F9C089907988142D5
:103C7800ACBF641824180F94BCF1000F40F0008307
:103C8800002326935746BDE503F007003030DB08D4
:103C98000C46087001F1FF31F6D1DDF810E01EF096
:103CA800010F23463FF497AE30283FF494AE0C46FC
:103CB800C4EB0A0030210C9003F8011C8EE6069430
:103CC800049C0791E00640F10E810B9C23680434A4
:103CD80001210B9458E625782A2D04F1010400F0FF
:103CE8004787A5F13003092B4FF000000BD814F8D3
:103CF800015B00EB800003EB4000A5F13003092BCA
:103D0800F5D940EAE0700590ADE50694049C07916A
:103D180044F010040494049C8DF87720E30640F1E5
:103D280023810B9C236804340B94002BB7BF2D22EE
:103D38009DF877208DF877205B42012127E60694CD
:103D48000B9C8DF87720E31D23F0070303F108048B
:103D580007910B941C6816945B68169A1793179B27
:103D680043EC102B02F06CFF012840F042841698B7
:103D7800179900220023FFF71FFC002840F01A863D
:103D88009DF87720049948F21C4448F218434FF0F4
:103D9800030E0020C0F60004C0F6000321F08001E5
:103DA800CDF820E005900491472DD8BF1C46CDF8EA
:103DB80030E013901AE6049B43F08003049350E527
:103DC800DDF810E04EF0080ECDF810E049E500BF30
:103DD800A08200080694049C079144F010040494FF
:103DE800049C14F010037FF4CAAD049C14F0400145
:103DF80015BF0B9C0B9C1946236818BF23880434F5
:103E08000B94C1E5A5F13003002114F8015B01EB27
:103E1800810103EB4101A5F13003092BF5D922E516
:103E2800DDF810E04EF0100ECDF810E019E5DDF8E1
:103E38002CE00694DEF8004007914FF0000B8DF857
:103E480077B00EF10408002C00F0A0850598002832
:103E58002046C0F261855946059A02F0E1F900282A
:103E680000F0C285059BCDF82C80001B9842B8BF96
:103E7800034623EAE37E0C93CDF814B0CDF820E096
:103E88005846CDF84CB09DF87720AFE5069448F237
:103E98003C44C0F600041494049C0791E1068DF894
:103EA800772037D50B9C236804340B94049CE207D5
:103EB8003CD5002B3AD0302244F002048DF87950DA
:103EC80004948DF8782002215EE5002A08BF20229C
:103ED800C7E40694049C079144F010040494049CDD
:103EE800E0063FF5F2AE049C14F0400F0B9C14BFA3
:103EF80023882368043401210B9445E5069448F28D
:103F08002844C0F600041494049C0791E1068DF837
:103F18007720C7D4049C14F0400F0B9C14BF23884F
:103F2800236804340B94049CE207C2D402212BE5D5
:103F3800069401240B9B08940B9C1B68079104347E
:103F480000220B9401240C948DF877208DF8A03072
:103F58000592139228AC50E50694049C0791E30659
:103F68008DF877203FF5DDAE049C14F0400F0B9CD4
:103F780014BFB4F90030236804340B94D5E60498D0
:103F880040F0400004906CE4049B43F01003049359
:103F980067E40694049C8DF87720E50600F15482C6
:103FA800049C640640F150820B9C236804340B94F3
:103FB8000F9C1C8026E40694049C0B9B079144F0FC
:103FC800020404940B9C1B6804340B9448F23C4490
:103FD80030227825C0F600048DF878208DF87950C5
:103FE80014940221D0E4DDF810E04EF0010ECDF873
:103FF80010E036E40B980168002900F10403FFF68D
:1040080092AC0B932DE4079106948DF87720002D40
:104018003FF498AC0023012408940C941A468DF8B8
:10402800A0508DF877300593139328ACE5E4DDF8BC
:104038009CC040E5652D40F3D08016981799CDF8BF
:1040480008C000220023FFF7ADFADDF808C00028F9
:1040580000F03C81269B129C01330CF1010C0122DB
:10406800072B3C607A60CDF89CC02693D8BF0837F0
:1040780000F300831F9B0E9CA34203DB049CE00714
:104088007FF5A8AD159C269B3C60189C0133A44481
:10409800072B7C60CDF89CC02693D8BF083700F367
:1040A80046830E98441E002C7FF794AD102CD8BF81
:1040B800A349269BD8BF0A9140F3C182A04ADDF8E4
:1040C80034800A9210256246DDF824B003E0103CE3
:1040D800102C40F3B38201331032072BC7F800903D
:1040E8007D6027922693D8BF0837F0DD40465946B1
:1040F80025AA02F023FF00287FF42BAC279A269BE1
:104108005746E4E7002940F0C580049CE0075CBFFF
:104118000C9154467FF562AC1B9C30230C948DF8AF
:10412800C7300DF1C70459E407980899C1EB000896
:10413800B8F1000F7FF7E7ACB8F1100FD8BF804A8D
:10414800269BD8BF0A922FDD7D4810950A903046ED
:104158003A46464627464FF0100B61460D9C099D8E
:10416800804602E0103E102E17DD01331031072B78
:1041780082E8000A27912693D8BF0832F2DD20464C
:10418800294625AA02F0DAFE00287FF4E2AB103EA9
:10419800102E2799269B5246E7DC3C46109D174671
:1041A80042468C46B046164601330A992693C444C3
:1041B800072B87E80201CDF89CC0D8BF08377FF7E6
:1041C800A2AC0D98099925AA02F0B8FE00287FF440
:1041D800C0ABDDF89CC0574695E40E9B269D012B8D
:1041E80040F3C48101350CF101030122072D3C6025
:1041F8007A6027932695D8BF083700F3D781DDF872
:10420800608015981899386001359844072D7960B1
:10421800CDF89C802695D8BF083700F3BA81169848
:10422800179900220023FFF7BDF9002840F0C1804C
:104238000E9A0135531E01349844072D2695CDF862
:104248009C803C607B6000F3F2800837DDF864C036
:10425800199C0135C44421AB072DCDF89CC0269587
:1042680087E818007FF7B5AC0D98099925AA02F0E0
:1042780065FE00287FF46DABDDF89CC05746A9E4C5
:104288000D98099925AA02F059FE00283FF4F8ACC8
:10429800FFF75FBB0C905446FFF7A0BB0D98099938
:1042A80025AA02F04BFE00287FF453ABDDF89CC032
:1042B800574612E40D98099925AA02F03FFE0028F6
:1042C8007FF447ABDDF89CC0574618E41F9B002BD2
:1042D80040F3DC810E9D1398DDF838B08542A8BF05
:1042E8000546002DA3440CDD269B3C600133AC44FD
:1042F800072B7D60CDF89CC02693D8BF083700F304
:1043080022831399002DACBFC5EB010100390029A8
:104318000D4640F3BD801029D8BF094A269BD8BF57
:104328000A9240F39E80064805943A460A9037461A
:104338004FF010082E4661460D9C099D06E000BF0F
:10434800A0820008103E102E40F386800133103101
:10435800072BC2F80090C2F8048027912693D8BF93
:104368000832EFDD2046294625AA02F0E7FD00289D
:104378007FF4EFAA2799269B5246E3E7092B00F220
:1043880021811B9C30330C948DF8C7300DF1C70484
:10439800FFF724BB0D98099925AA02F0CFFD002844
:1043A8007FF4D7AA9DF87720DDF89CC05746FFF721
:1043B80082BB0E9B5C1E002C7FF748AFAC4B102CC9
:1043C8000A9329DD43460596A0464FF0100B0D9C35
:1043D800099E04E0A8F11008B8F1100F19DD0135A5
:1043E8001033072D87E8000A27932695D8BF08378A
:1043F800F0DD2046314625AA02F0A0FD00287FF412
:10440800A8AAA8F11008B8F1100F279B269D5746B7
:10441800E5DC059E4446984601350A9B2695A0444E
:10442800072DCDF89C8087E818007FF70EAF0D9810
:10443800099925AA02F082FD00287FF48AAADDF8EE
:104448009C80269D574601E70B9C236804340B94F7
:104458000F9C1C60FFF7D6B9059C35468C463E4636
:10446800174601330A992693AC44072B87E82200A4
:10447800CDF89CC0D8BF08370ADD0D98099925AA40
:1044880002F05CFD00287FF464AADDF89CC0574662
:104498001F9B0E98139A834214444CDB0499CA0755
:1044A80049D40E9AC4EB0B05D31AAB42B8BF1D46CC
:1044B800002D0CDD269A3C600132AC44072A7D6051
:1044C800CDF89CC02692D8BF083700F34882002D4B
:1044D800ACBFC5EB03041C1E002C7FF77BAB102C74
:1044E800D8BF6348269BD8BF0A9040F3B58060497F
:1044F800DDF834800A9110256246DDF824B003E027
:10450800103C102C40F3A78001331032072BC7F85A
:1045180000907D6027922693D8BF0837F0DD40468B
:10452800594625AA02F00AFD00287FF412AA279A04
:10453800269B5746E4E7269A189915987960013220
:104548008C44072A3860CDF89CC02692D8BF08371B
:10455800A7DD0D98099925AA02F0F0FC00287FF440
:10456800F8A91F9BDDF89CC057469AE7DDF810E0D4
:104578001EF0010F7FF436AE01350CF1010801235E
:10458800072DCDF89C8026953C607B607FF75DAE5B
:104598004DE70D98099925AA02F0D0FC00287FF470
:1045A800D8A9DDF89C80269D574638E60D980999CC
:1045B80025AA02F0C3FC00287FF4CBA9279B269DDF
:1045C80057461CE64CF6CD4ECCF6CC4E0DF1C70046
:1045D800AEFB0341C90801EB810C0446A3EB4C0375
:1045E80003F1300020700B46601E0029F0D1FFF760
:1045F800F2B9169A179B43EC102B02F021FB002806
:1046080040F0A1800590049805999DF877201391B2
:1046180048F2244448F220434FF0030EC0F6000449
:10462800C0F6000320F08000CDF820E00490472D6C
:10463800D8BF1C46CDF830E0FFF7D8B9944601330F
:104648000A982693A444072BCDF89CC087E811004C
:104658007FF7BFAA08E6944601330A9A2693A44432
:10466800072BCDF89CC087E814007FF7B2AAFBE5BA
:10467800A08200080D98099925AA02F05FFC00287D
:104688007FF467A9DDF89CC05746F3E4269A12998F
:10469800013239600CF1010C0121072ACDF89CC0C8
:1046A8002692796000F3048108371D462DB90E9AC9
:1046B8001AB9049BD9077FF58DAA269B1899189AD1
:1046C80015987A6001336144072B38602791269347
:1046D800D8BF07F1080200F3BB816D42002D40F3FB
:1046E8000A81A948102D0A9040F3EF801027DDF8C1
:1046F8003480DDF824B003E0103D102D40F3E58050
:1047080001331031072BC2F8009057602791269388
:10471800D8BF0832F0DD4046594625AA02F00EFC03
:1047280000287FF416A92799269B5246E4E70D989E
:10473800099925AA02F002FC00287FF40AA9DDF8ED
:104748009CC05746ADE4059C013408BF062425F0FB
:10475800200808BF059407D0B8F1470F04D1059C7D
:10476800002C08BF01240594179B049C002B44F4DB
:1047780080741094BBBF1C4604F1004B00242D2408
:10478800A8BFDDF85CB00A94B8F1460EDEF100046B
:1047980054EB0E040894002C2FD00321169A5B4684
:1047A80020AC23A843EC102B00940190059A0D9897
:1047B8001FAB00F093FAB8F1470F044603D10499F0
:1047C800C80740F10681DDF814C0089AA4446AB30A
:1047D8002378302B00F0A0811F9B9C4426E00D9885
:1047E800402101F073FA20602061002800F0D48194
:1047F800099C40236361FEF7E5BFB8F1450F40F01F
:1048080041810598169A441C5B4620A823A943ECCD
:10481800102B8DE8030022460D98029402211FAB4D
:1048280000F05CFADDF808C00446844400231698BA
:10483800CDF808C059460022FEF7B4FEDDF808C0DE
:10484800634648B9239B9C4506D930215A1C2392BC
:104858001970239B9C45F9D81B1BB8F1470F0E9381
:1048680000F0BA80652D40F39E81662D00F00C8122
:104878001F99139113980E998842C0F2F680049AF2
:10488800D30749BF139B0C9001330C9354BF20EA04
:10489800E07323EAE37367250A9A002A40F08F80C1
:1048A8000893109B059204939DF87720FFF79EB814
:1048B8000D98099925AA02F041FB00287FF449A820
:1048C8001F9DDDF89CC05746F0E601330A982693F1
:1048D8002944072B82E821002791D8BF08320ADD36
:1048E8000D98099925AA02F029FB00287FF431A820
:1048F8002799269B5246DDF838C0146001330E9C78
:1049080026938C44072BCDF89CC05460D8BF02F185
:1049180008077FF75FA9A7E4CDF814B002F0DEFA24
:10492800059A0C9020EAE0711392CDF82C8008913A
:104938009DF87720FFF75AB8C0F600030A93279925
:10494800269AFFF7A9B80D98099925AA02F0F6FA50
:1049580000287EF4FEAFDDF89CC05746D1E40D98E0
:10496800099925AA02F0EAFA00287EF4F2AF1F9B03
:104978000E9CDDF89CC0E31A5746A8E5C0F6000374
:104988000A93269BFFF75CB9A08200082246059C83
:10499800CDF82C80062C28BF06240C940C9B05927D
:1049A80048F2504423EAE37313920893C0F60004D4
:1049B800FFF71CB82D228DF87720FFF7E3B9109880
:1049C80008932D22002104908DF877200591FFF798
:1049D8000EB8239B1B1B0E931F9BD91C12DB05993A
:1049E80099420FDB139345E70599059ACDF82C807A
:1049F80021EAE1710C920891059013909DF87720B7
:104A0800FEF7F4BF023D013B002B1F93BABF5B4288
:104A18002D222B22092B8DF884508DF8852042DC1D
:104A2800303330228DF887308DF8862022AB21AACA
:104A38000E999A1A114419920E9A0C91012A7EDD48
:104A48000C9B002001330C93139023EAE37323E7B4
:104A58000D98099925AA02F071FA00287EF479AF19
:104A68001F9D2799269B524637E613980E990028D2
:104A7800D4BFC0F10203012319440C9121EAE17368
:104A8800672509E7022189E61F9A002A139260DD4B
:104A9800059BCBBBDDF810E01EF0010F34D122EAF4
:104AA800E2730C92F8E646F26760C6F266600DF1B2
:104AB800920180FB032EDA17C2EBAE0202EB820CE6
:104AC8008E46A3EB4C0303F13001092A8EF800103F
:104AD80013460EF1FF31ECDC02F130030DF19300C7
:104AE800DAB288420EF8012C53D90DF185017346CC
:104AF80001E013F8012B834201F8012FF9D142A8F4
:104B0800CEEB4003F63B92E705981399431C1944F2
:104B18000C9121EAE173BFE61698CDF808C0594612
:104B280000220023FEF73EFDDDF808C000287FF4D0
:104B380053AE0598C0F101031F939C4476E6DDF857
:104B480010E01EF001037FF47BAF139321EAE173B9
:104B5800A2E6059A32B9049BDA075CBF01230C93DD
:104B68007FF59AAE059B02330C9323EAE37393E631
:104B78000B9BDDF82CE01B680593059800280EF1C7
:104B88000403BFF63EAA4FF0FF300B930590FEF7E3
:104B980068BE0DF186034AE70D9C0C2323604FF095
:104BA800FF30FEF7DEBE1F9B2DE700BF00000000B0
:104BB8002DE9F04F03690D699D42834683B0C8BF54
:104BC800002000F38880013D01F114040BF1140A60
:104BD80054F825205AF825300132B3FBF2F8AA0020
:104BE800914600925244A1440192B8F1000F3DD081
:104BF8004FF0000E7046224653468C4652F8046B1E
:104C08001968B7B2360C07FB08EE06FB08F606EB88
:104C18001E461FFA8EF7C71BB0B217FA81F7C0EB12
:104C2800114000EB2740BFB247EA0047914543F8DF
:104C3800047B4FEA20404FEA164EDFD2009A5AF81A
:104C48000230614693B9019A131F9A450CD252F863
:104C5800043C4BB9A2F1080302E01A68043B1AB9F4
:104C68009A4505F1FF35F8D3CBF81050584601F0B6
:104C7800E7FD00282EDB08F101085346002254F80E
:104C8800046B1868B1B2521A360C12FA80F1C6EBEE
:104C9800104202EB214289B241EA0241A14543F8A0
:104CA800041B4FEA2242EAD25AF825200AEB850370
:104CB80082B91A1F92450BD253F8042C42B9083B0B
:104CC80002E01A68043B1AB99A4505F1FF35F8D392
:104CD800CBF81050404603B0BDE8F08F2DE9F04FF7
:104CE8009BB004460291016C249D059206935BECEF
:104CF80010AB41B1436C01229A404B608A6001F0CD
:104D08004FFB00232364BBF1000FB5BF0123002331
:104D18002B602B604FF00003B4BF2BF00049D9463D
:104D2800C7F6F0734FF0000209EA0303C7F6F07202
:104D3800B8BFCB46934216D00022002350465946AE
:104D4800FEF730FC56465F46804628B3069E259DF2
:104D580001233360002D00F0DB80A948286001386A
:104D68001BB0BDE8F08F069D42F20F7348F2684011
:104D78002B60C0F60000BAF1000F00F0A980259E54
:104D8800002EEDD0C378002B40F0B180C31C259DC8
:104D98002B601BB0BDE8F08F204647EC106B19A9BB
:104DA80018AA01F059FE5FEA19550B9040F0A2804D
:104DB800189E199D6FF4826335449D42C0F25E824D
:104DC8004FF60E43CFF6FF735B1B05F2124209FA4A
:104DD80003F32AFA02F243EA0200FEF705F9B046A5
:104DE8000126013DA1F1F871159600230022C3F6B2
:104DF800F873FDF7BBFF7CA3D3E90023FEF76AF93C
:104E08007BA3D3E90023FDF7B3FF064628460F46E8
:104E1800FEF7FAF878A3D3E90023FEF75BF9024618
:104E28000B4630463946FDF7A3FF06460F4603F00A
:104E3800B5F939460490002230460023FEF7BCFB42
:104E4800002840F00482049E162E84BF0126149682
:104E580012D848F2C823C0F6000303EBC603D3E90F
:104E6800000152465B46FEF7C5FB002800F00E82A3
:104E7800013E049600261496C5EB0805013D48BF7F
:104E88000026089548BF0896049E4BBF6D42002532
:104E98000A950A95002EC0F2E881089D0F963544C0
:104EA800002608950C96029D092D36D8052DC4BFFD
:104EB800043D0295029EA6F10203CCBF0025012500
:104EC800032B2CD8DFE813F04403120252036E05BB
:104ED80048F25C4248F26843C9F31300C0F6000286
:104EE800C0F6000300280CBF1046184647E700F13B
:104EF80008034CE7CBF3130343F07F53CDF85480FA
:104F08005046A5F2FF3543F44011DDF860806CE7A8
:104F180048F25840C0F6000022E700260296002515
:104F280065642946204601F015FA4FF0FF360595CD
:104F3800012507900E96206409960D95199B002B64
:104F4800C0F2BD80049E0E2E00F3B98048F2C8233B
:104F5800C0F6000303EBC603059D099E93ED007B95
:104F6800EA0F002ECCBF002202F001028DED027B79
:104F7800002A40F04E8453EC172B50465946FEF752
:104F8800D3F903F00BF98046FEF73EF8DDE902237A
:104F9800FEF7A0F80B46024659465046FDF7E6FED6
:104FA800079D08F130032B70099B012B06460F461D
:104FB80005F1010556D000230022C4F22403FEF7B0
:104FC80089F80022002306460F46FEF7EBFADDF8C3
:104FD8001C90002840F00085099DA944079D05F113
:104FE800020A1AE0AFF3008061436F63A787D23FDC
:104FF800B3C8608B288AC63FFB799F501344D33FC0
:1050080059840008FEF766F80022002306460F467A
:10501800FEF7C8FA002840F0DD84DDE902233046B7
:105028003946FEF781F903F0B9F88046FDF7ECFF41
:10503800DDE90223FEF74EF802460B4630463946B4
:10504800FDF794FE08F130050023CA450AF8015C13
:10505800064655460F464FF00002C4F224030AF1F3
:10506800010ACFD132463B4630463946FDF780FE2D
:1050780006460F463246DDE902013B46FEF79CFA3A
:10508800002800F06085DDF81C90049E15F8018C5E
:10509800169607952A4605E0994500F0CF8413F83F
:1050A800018C1A46B8F1390F02F1FF33F4D0079298
:1050B800169E08F10102D2B204961A70B1E00D9D55
:1050C800002D40F0E5800C9E0A9DDDF8348008999B
:1050D8000029C8BF002D09DD0B460A9AAB42A8BFBC
:1050E8002B46D21AC91A0A92ED1A08910C9B002B6A
:1050F8001ADD0D99002900F06584002E10DD414667
:105108003246204601F0EEFA804641460B9A204688
:1051180001F040FA0B990746204601F041F90B9738
:105128000C9B9A1B40F095840121204601F028FA37
:105138000F990029064605DD01460F9A204601F021
:10514800D1FA0646029A012A40F3798300270F997B
:105158000120002940F03383089B034413F01F0308
:1051680000F08682C3F12002042A40F35B850A9A84
:10517800DDF820E0C3F11C031A449E440A921D4442
:10518800CDF820E00A9B002B05DD0B991A46204636
:1051980001F0F8FA0B900899002905DD3146089AC4
:1051A800204601F0EFFA0646149A002A40F01083D0
:1051B800029A0999022AD4BF002301230029C8BFF3
:1051C8000023002B00F00A82099D002D40F0FF818A
:1051D80031462B460522204601F0ECF806463146BA
:1051E8000B9801F02DFB002840F3F181049D013557
:1051F8000495079DA946312309F101012B700791F8
:1052080000253146204601F0CBF8B8F1000F08D050
:10521800454518BF002D40F039824146204601F02F
:10522800BFF820460B9901F0BBF8049E079D0022A9
:10523800731C2A70069E259D33604846002D3FF456
:105248008FAD079E48462E601BB0BDE8F08F0498CE
:10525800FDF7DAFE32463B46FEF7A4F900287FF454
:10526800F2AD049E013E0496EDE5049E0A9DAD1B39
:105278000A95754200260C950F9614E64FF6EE3007
:10528800CFF6FF70401B0AFA00F0A6E51490F3E58C
:10529800029E012E40F30F84099D6E1E0C9DB5429F
:1052A800BFBF0C9D0C96C5EB06030F9DB6BFED184E
:1052B800C6EB05060F95099DB8BF0026002DB3BFA4
:1052C800DDF828E00A9D099BC5EB0E05B8BF002351
:1052D8000A9ADDF820E01A449E44204601210A92E9
:1052E800CDF820E001F04CF98046F0E600260D9656
:1052F800059EDDF810E076440E960136002E0996DC
:1053080040F35383099E0E2E8CBF002505F001053E
:105318000021172E61640AD9012204235B0003F1DE
:105328001400B042114602F10102F7D96164204627
:1053380001F010F807902064002D3FF4FFAD049DA4
:10534800002DCDE912AB40F3AA8148F2C82305F03D
:105358000F02C0F6000303EBC2032D11D3E9006767
:10536800EB0640F18E8148F2B833C0F60003504690
:105378005946D3E90823FDF7D7FF05F00F05824604
:105388008B464FF003089DB148F2B839C0F60009C2
:1053980030463946EF0705D5D9E90023FDF79AFECF
:1053A80008F101086D1009F10809F3D106460F4606
:1053B80032463B4650465946FDF7B6FF06460F466D
:1053C800149D55B10023304639460022C3F6F073C8
:1053D800FEF7F2F8002840F006834046FDF714FE79
:1053E80032463B46FDF776FE00230022C4F21C033A
:1053F800FDF7BEFC099D8046A1F15079002D00F013
:10540800CA80049DDDF824C016950D9D48F2C82376
:10541800C0F60003002D00F06F8103EBCC030021E0
:1054280053E902230020C3F6E071CDF804C0FDF76C
:105438007BFF42464B46FDF799FC82468B46304639
:10544800394602F0ABFE0546FDF7DEFD02460B4687
:1054580030463946FDF78AFC30355FFA85F8079DF6
:1054680006460F4685F800805046013559463246B3
:105478003B460095FEF7BEF8002862D1002132466F
:105488003B460020C3F6F071FDF770FC02460B4660
:1054980050465946FEF7AEF8DDF804C0002840F043
:1054A800B683BCF1010F40F3F780DDF81C90179428
:1054B800E144CDF84090DDF8009010E00021002094
:1054C800C3F6F071FDF752FC52465B46FEF774F8DE
:1054D800002840F01C83109DA94500F0DC800023C3
:1054E800504659460022C4F22403FDF7F3FD002379
:1054F8000022C4F2240382468B4630463946FDF723
:10550800E9FD0D46044602F049FE8046FDF77CFDA4
:1055180002460B4620462946FDF728FC08F13008CC
:105528005FFA88F852465B4609F8018B06460F4633
:10553800FEF742F832463B460028BFD0179CCDF80C
:105548000090169D009EDDF81C900495079668E66D
:1055580000260D96059E002E40F32F820E2E8CBF3E
:10556800002505F001050E960996D1E601260D964F
:10557800F0E74046FDF748FD02460B4630463946FF
:10558800FDF7A8FD00230022C4F21C03FDF7F0FB81
:105598008046A1F15079002330460022C4F214035A
:1055A8003946FDF7E3FB42464B4682468B46FEF7FB
:1055B80021F80646002840F0FF80424609F10043E2
:1055C80050465946FDF7F8FF002865D0B046059DBE
:1055D800DDF81C90ED430495002512E60D9A002A8B
:1055E80040F05F810025DDF824A0DDF82C90DDF87F
:1055F8001CB006E0494620460A22002300F0DAFEE5
:10560800814648463146FFF7D3FA30300BF805009B
:1056180001355545EEDB099DDDF81CB0CDF82C9021
:10562800012DACBFAB440BF1010B074600250B99CC
:105638000122204601F0A6F831460B9001F000F94E
:10564800002840F36E821BF8012C079905E0994267
:1056580000F0238213F8012C9B46392A0BF1FF3303
:10566800F5D00132DDF81C901A70CDF81CB0C8E5F1
:105678001C230A99089A19441A440A911D4408924D
:1056880080E5DDE912AB4FF002087CE629462046AA
:1056980000F086FEC1E5179CDDE912AB4EE4049EDE
:1056A8007542002D00F09A8148F2C82305F00F02D8
:1056B800C0F6000303EBC203D3E90023DDE91201BE
:1056C800FDF708FD2D1106460F4600F09C8248F2B2
:1056D800B839C0F600094FF00208EE0705D5D9E938
:1056E8000023FDF7F7FC08F101086D1009F108091E
:1056F800F3D106460F4663E60CF1FF3B03EBCB0103
:1057080042464B46D1E90001CDF804C0FDF7E2FC62
:10571800CDE910013946304602F040FD0546FDF757
:1057280073FC02460B4630463946FDF71FFBDDF891
:105738001CE030358EF80050DDF804C0BCF1010FD4
:1057480006460F460EF1010A1FD0079D05F1FF39E5
:10575800E14400230022C4F22403FDF7BBFC0F46FA
:10576800064602F01BFD8046FDF74EFC08F13008A6
:1057780002460B4630463946FDF7F8FA05F8018F20
:105788004D45E6D106460F46DA4400230022C3F60B
:10579800E073DDE91001FDF7EBFA32463B46FDF711
:1057A8000BFF002800F05C81DDF81C901AF8018CD2
:1057B800CDF81CA0524675E40026B04616E53369BC
:1057C80006EB8303186900F08FFEC0F12000C3E4E4
:1057D8000B98314601F034F80028BFF6E9ACDDF843
:1057E80010E00B990EF1FF3E20460A220023CDF867
:1057F80010E000F0DFFD0D990B9000293BD10E9DC4
:10580800002D03DC029D022D00F308820E9D0995F0
:10581800E8E6099D002D40F0948100230022C4F29F
:105828001403DDE90201FDF755FC52465B46FDF71E
:10583800D7FE099EB04600287FF4C9AED6E4BAF177
:10584800000F7FF483ACCBF313035746002B7FF490
:105858007EAC2BF000473F0D3F05002F3FF477AC9F
:105868000A9BDDF820E001330EF1010E0A93CDF812
:1058780020E001276BE4002341460A22204600F07D
:1058880099FD0E9ADDF808E0002ACCBF0023012319
:10589800BEF1020FD8BF00238046002B40F0BE8126
:1058A8000992002D05DD41462A46204600F06AFF90
:1058B8008046C446002F40F05781099DDDF81CE062
:1058C8000799AE440AF0010509953746CDF828E056
:1058D8004D1CE1460B9E0AE000F06CFD49468046EF
:1058E8000A222046002300F065FD8146013539462D
:1058F8003046FFF75DF941468246304600F0A0FF8A
:105908004A4683463946204600F0BCFF0AF1300279
:105918000592C26805F1FF3E0346CDF820E0002A53
:105928003ED119463046019300F08AFF019B02469A
:1059380019462046019200F033FD019A029911435D
:1059480003D1099B002B00F04D81BBF1000FC0F281
:10595800BA80029B5BEA030303D10999002900F08E
:10596800B280002A00F31D810A9B059A9D4205F822
:10597800012CAB4600F0278131460A22002320463D
:1059880000F018FDC8450646414620464FF00A0279
:105998004FF00003A0D100F00DFD80468146A5E739
:1059A8000122C5E701260D96A2E40E2E8CBF002326
:1059B800012300211D406164B9E401230E9309937A
:1059C8000593F6E70B990C9A204600F08BFE0B9096
:1059D800FFF7AABBDDF81C90079522E4DDE9126702
:1059E8004FF00208ECE4099D002D3FF4C2AD0E9D76
:1059F800002D7FF751AE00230022C4F22403304665
:105A08003946FDF767FB064608F101000F46FDF72A
:105A1800FBFA02460B4630463946FDF75BFB00238E
:105A28000022C4F21C03FDF7A3F9049DDDF838C079
:105A3800013D80461695A1F15079E6E4169D07923E
:105A4800302289F800200135312204951A70FFF7B9
:105A5800E8BB0B99204600F045FE0B90FFF764BBAE
:105A68000021DDE910230020C3F6E071FDF77EF97F
:105A780032463B46FDF7BEFD00283FF40DAE5346C7
:105A88000AF1FF3A13F8012C302AF8D0169DDDF8F8
:105A98001C9004950793FFF7C4BBDDF810E0079945
:105AA800CDF81CB031230EF1010ECDF810E00B70CB
:105AB8008946FFF7A6BB159D002D6BD003F2334333
:105AC8000C9E0A9D04E4002A0B96CC463E46059F90
